:1000000093C00000ACC00000AAC00000A8C000005F
:10001000A6C00000A4C00000A2C00000A0C0000054
:100020009EC000009CC000009AC00000F3C3000006
:1000300096C0000094C0000092C0000090C0000074
:100040008EC000008CC000008AC0000088C0000084
:1000500086C0000084C0000082C0000073C10000A0
:100060007EC000007CC000007AC0000078C00000A4
:1000700076C000002003530068006F007200740017
:10008000790020004B006500790062006F0061007C
:10009000720064000000180352006F0063006B00E0
:1000A000610038003400200044004900590000007D
:1000B0000403090409022200010100C032090400FE
:1000C0000001030101000921110100012240000784
:1000D00005810308000A120110010000000809123E
:1000E000BDFA00000102000105010906A101750128
:1000F0009508050719E029E71500250181029501FA
:1001000075088103950575010508190129059102F6
:1001100095017503910395067508150026E70005FE
:1001200007190029E78100C011241FBECFEFD2E0DC
:10013000DEBFCDBF11E0A0E0B1E0E4E7FFE002C028
:1001400005900D92AE30B107D9F721E0AEE0B1E0F5
:1001500001C01D92AE3AB207E1F752D0FFC650CFB0
:10016000AF92BF92DF92EF92FF920F931F93CF93C4
:10017000DF9384B7877F84BF0FB6F894A8958091EA
:100180006000886180936000109260000FBE8CEC6C
:10019000A82EB12C87E690E0F501918380839AEC3C
:1001A000E92EF12C26E0D22EF701D08208EC10E0E7
:1001B000F8011082C9ECD0E088E18883539A5A9AFA
:1001C0001ED384E085BD5F9A579A1882F801108289
:1001D000F70110828FEC90E0F50191838083F701A5
:1001E000D08282E0F801808388E98883DF91CF9113
:1001F0001F910F91FF90EF90DF90BF90AF90089507
:10020000AFDF2FB7F89487E191E090939801809346
:10021000970190939A01809399012FBF789480E081
:1002200091E0D0D58CD4FBCF0895089580E091E083
:10023000AFD5E2EEF0E0808184608083089580E0B5
:1002400091E08EC480910B0190910C01009729F0F0
:10025000019790930C0180930B0108950F931F93C6
:10026000CF93DF93A8019FB7F89480919B019FBF24
:10027000883008F44DC0EFE0F1E0EF01A091990162
:10028000B0919A019D9181E0A739B80711F4A7E1D7
:10029000B1E0B0939A01A09399016FB7F89480915F
:1002A0009B01815080939B016FBF999381E0C7317F
:1002B000D80721F78191803EF9F480818130E1F403
:1002C0008181803EC9F48091C80085FFFCCF8FEE0C
:1002D0008093CE008091C80085FFFCCF81E08093A1
:1002E000CE008091C80085FFFCCF8FEE8093CE00BA
:1002F000DF011E921082118281E0E531F807D1F60C
:1003000080910E019091C80095FFFCCF8093CE00A4
:10031000AFE0B1E0F901C90108962D912193E817EA
:10032000F907D9F788E090E0FA019183808380E0B3
:10033000DF91CF911F910F910895F90180818093F2
:100340000E0108952F932FB72F933F934F938F93C1
:100350009F93EF93FF938091CE009EB39430E9F486
:10036000E0919701F091980180832091970130915D
:100370009801C901019641E02639340711F487E15B
:1003800091E090939801809397019FB7F8948091A2
:100390009B018F5F80939B019FBFFF91EF919F9186
:1003A0008F914F913F912F912FBF2F9118959C01C5
:1003B000DA01832F992783309105B9F060F48130F9
:1003C000910561F10297E1F482E290E024EB30E0E4
:1003D0002D933C9308958132910529F1829781F400
:1003E00080E490E028EE30E0F3CFC9019927213076
:1003F00061F08230910579F0E0EBF0E0892B39F083
:1004000080E090E020E030E0E3CFE6E9F0E08491A6
:1004100090E09F01DDCFE4E7F0E0F9CF82E190E0EA
:1004200026ED30E0D5CF89E090E026EC30E0D0CF6B
:10043000AC0128E030E080E02417350718F0829501
:10044000807F08958F5F220F331FF6CF8093E900DE
:10045000EBEEF0E0808181608083EDEEF0E01082D1
:100460006093EC0040838091EE0087FB882780F941
:1004700008951092F40080E08093E9001092F0005B
:100480001092E8001092ED009091EB009E7F909307
:10049000EB008F5F853081F708958091A50187FF7C
:1004A00011C08091E80082FF06C08091E8008B7740
:1004B0008093E80008958EB38111F3CF08958EB331
:1004C0008115E1F38091E80080FFF9CF8091E80089
:1004D0008E77EECF95E62091EC00822F817020FF81
:1004E00006C08091E80080FF06C080E0089520915A
:1004F000E80022FD1CC08EB38115A1F08EB38530BB
:1005000099F08091EB0085FD11C08091E10082FFA0
:10051000E2CF8091E1008B7F8093E1009A95D9F63C
:1005200084E0089582E0089583E0089581E00895CD
:10053000BF92CF92DF92EF92FF920F931F93CF93D0
:10054000DF93D82FB92E7B016A01C4DFC82F811534
:10055000E9F08C2FDF91CF911F910F91FF90EF90D9
:10056000DF90CF90BF900895F60109958130E9F4AE
:10057000C5E0EFCF0D2F1B2DF80181918F018093E6
:10058000F100F1E0EF1AF108D02FB12EE114F104DF
:1005900001F38091E80085FDEDCF8091E8008E7732
:1005A0008093E800C114D104F9F694DF811589F332
:1005B000C82FCFCFAB012091AB013091AC012617F2
:1005C000370718F0672B69F09A0150E021153105C3
:1005D00071F451110CC08091E80082FF34C080E0BA
:1005E00008952091E8002E772093E800EDCF409108
:1005F000E80043FD30C04091E80042FDECCF4EB32F
:10060000411559F14EB3453021F14091E80040FFCA
:10061000DDCF4091F2002115310511F0483050F046
:1006200051E0483009F050E04091E8004E774093A7
:10063000E800CCCFFC0181918093F1002150310979
:100640004F5FCF01E8CF8EB3811539F08EB385307F
:1006500011F683E0089581E0089582E00895AB01EA
:100660002091AB013091AC012617370718F0672BAA
:1006700069F09A0150E02115310571F451110CC057
:100680008091E80082FF35C080E008952091E80065
:100690002E772093E800EDCF4091E80043FD32C073
:1006A0004091E80042FDECCF4EB3411569F14EB3E5
:1006B000453031F14091E80040FFDDCF4091F2003C
:1006C000FC012115310511F0483058F0CF0151E0FF
:1006D000483009F050E04091E8004E774093E80040
:1006E000CACF84918093F100215031094F5F319638
:1006F000E8CF8EB3811541F08EB3853009F0C0CFBD
:1007000083E0089581E0089582E008959B01672BBE
:1007100011F58091E8008B778093E8008091E800E4
:1007200080FF2AC080E008954EB3453011F483E085
:1007300008954091E80042FF0EC04091F200FC0194
:10074000411112C08091E8008B778093E800CF01BF
:100750002115310519F34091E80043FD14C04EB353
:100760004111E2CF82E008958091F1008193215000
:10077000304041F3CF01E1CF8EB3811599F38EB3B1
:10078000853061F6D4CF81E008953ED040D01EBAC6
:100790001092A40184E089BD89B5826089BD09B445
:1007A00000FEFDCF8091D800982F9F779093D800BE
:1007B00080688093D800809163008E7F809363006F
:1007C0008091D8008F7D8093D8008091E0008E7F4B
:1007D0008093E0008091E1008E7F8093E100809122
:1007E000E20081608093E2008091E100877F809346
:1007F000E1008091E20088608093E2000895C5DF07
:1008000081E08093AD0108951092E2000895109266
:10081000E10008951F920F920FB60F9211242F93AB
:100820003F934F935F936F937F938F939F93AF9378
:10083000BF93EF93FF938091E10080FF1BC08091F5
:10084000E20080FF17C08091E1008E7F8093E1007D
:100850008091E2008E7F8093E2008091E2008061CF
:100860008093E2008091D80080628093D80019BC08
:100870001EBADBDC8091E10084FF28C08091E20099
:1008800084FF24C084E089BD89B5826089BD09B434
:1008900000FEFDCF8091D8008F7D8093D80080919D
:1008A000E1008F7E8093E1008091E2008F7E809353
:1008B000E2008091E20081608093E2008091A401D7
:1008C000811509F448C084E08EBBAEDC8091E10064
:1008D00083FF22C08091E20083FF1EC08091E1006F
:1008E000877F8093E10082E08EBB1092A40180910B
:1008F000E1008E7F8093E1008091E2008E7F809303
:10090000E2008091E20080618093E200B2DD42E08B
:1009100060E080E09BDD12D18091E10082FF0AC09F
:100920008091E20082FF06C08091E1008B7F80937E
:10093000E10088DCFF91EF91BF91AF919F918F9182
:100940007F916F915F914F913F912F910F900FBECB
:100950000F901F90189581E0B7CF0F931F93CF93FF
:10096000DF9300D0CDB7DEB785EA91E0FC010196B8
:100970002091F100208321E08D3A9207B9F7809110
:10098000A5019091A6019A3008F0D6C0E92FF0E0B9
:10099000E055F84FC0C2803809F472C0823809F0BF
:1009A000CBC08091A90187708093E9008091EB0012
:1009B0001092E9009091E800977F9093E80085FB02
:1009C000882780F98093F1001092F1008091E8006F
:1009D0008E7722C0811509F453C0823009F0ACC073
:1009E0008091A701811113C08091A90187708115A1
:1009F00009F446C08093E9002091EB0020FF40C03D
:100A0000933071F48091EB0080628093EB00109240
:100A1000E9008091E800877F8093E8003EDD30C0E8
:100A20009091EB0090619093EB0021E030E0A90100
:100A300002C0440F551F8A95E2F74093EA001092D6
:100A4000EA008091EB008860E0CF811175C01091C1
:100A5000A7018091E800877F8093E8001EDD8091E8
:100A6000E80080FF0AC0812F8F778115F1F083E0C5
:100A70008EBB10681093E30003C08EB38111EFCFDB
:100A80008091E80083FF0AC08091EB008062809330
:100A9000EB008091E800877F8093E8000F900F9033
:100AA000DF91CF911F910F91089582E0E1CF80589F
:100AB000823008F041C0AE014F5F5F4F6091A901E5
:100AC0008091A7019091A80172DC8C01892BC1F261
:100AD0008091E800877F8093E800B80189819A813E
:100AE000BEDD8091E8008B778093E800C9CF803825
:100AF00019F58091E800877F8093E8008091A40138
:100B00008093F10063CF811117C09091A7019230BB
:100B100008F0B6CF8091E800877F8093E80090933B
:100B2000A401BBDC8091A401811521F084E08EBB7F
:100B30007DDBA6CF83E0FBCF82DBA2CF0895CF93EE
:100B40008EB3811559F0C091E900C7701092E90089
:100B50008091E80083FD01DFC093E900CF91089503
:100B6000AF92BF92CF92DF92EF92FF920F931F93BB
:100B7000CF93DF9300D000D000D00F92CDB7DEB777
:100B80007C012DB73EB73D832C838091E80083FF25
:100B900017C0F70120818091A9019091AA0128171F
:100BA000190671F48091A601893009F485C000F519
:100BB000823009F4DCC0833009F4AEC0813081F1A9
:100BC0002C813D810FB6F8943EBF0FBE2DBF2796F6
:100BD0000FB6F894DEBF0FBECDBFDF91CF911F914E
:100BE0000F91FF90EF90DF90CF90BF90AF9008955E
:100BF0008A3009F4A4C08B3019F78091A5018132A5
:100C0000F9F68091E800877F8093E8009091A70132
:100C100081E0911101C080E0F70180873EDCD0CFF8
:100C20008091A501813A61F62DB73EB73F832E83AF
:100C30008091E800877F8093E8001A821982809172
:100C4000A7011091A8018B838781482F50E0281BB2
:100C500031090FB6F8943EBF0FBE2DBF8DB79EB7BA
:100C600001966C0160E070E072D14FEF410F8E0190
:100C70000F5F1F4F9601BE016D5F7F4FC701EEDA18
:100C8000F70185819681009721F0478150E0B601F8
:100C900055D11092E90069817A81C6018BDC80917F
:100CA000E8008B778093E8002E813F810FB6F8949F
:100CB0003EBF0FBE2DBF84CF8091A501813209F0C8
:100CC0007FCF8091E800877F8093E8000091AB019F
:100CD0001091AC01C090A701D090A8018DB79EB72C
:100CE000801B910B0FB6F8949EBF0FBE8DBFEDB762
:100CF000FEB731965F01B801CF0108DD4FEF4D0D12
:100D000095016C2DC70119DB8091E8008E778093E7
:100D1000E8002C813D81CACF8091A501813A09F07C
:100D20004FCF8091E800877F8093E8008085809393
:100D3000F1008091E8008E778093E8006FCF80917A
:100D4000A501813209F03CCF8091E800877F809334
:100D5000E8008091A7019091A80136E096958795CB
:100D60003A95E1F78C7F93709287818757CF809176
:100D7000A501813A09F024CF8091E800877F809314
:100D8000E800818592859695879596958795CFCF32
:100D9000CF93DF93FC011486138681E0808784EF74
:100DA00091E092878187C481CC0FCC0FD181828161
:100DB00093813EDB4C2F482B426061EC8D2FDF91FD
:100DC000CF9144CB8F929F92BF92CF92DF92EF92BE
:100DD000FF920F931F93CF93DF9300D000D000D0EA
:100DE0000F92CDB7DEB77C012DB73EB73F832E8380
:100DF0008EB3843009F076C0F70181818093E900D9
:100E00008091E80085FF6EC03D832C838781482F49
:100E100050E0EDB7FEB7E81BF1090FB6F894FEBF3E
:100E20000FBEEDBF2DB73EB72F5F3F4F69011B824D
:100E30001A82198260E070E0C90189D08E010F5FCB
:100E40001F4F960140E0BE016D5F7F4FC70106DA7C
:100E5000B82EF70181859285892B29F011E08385D1
:100E60009485892B09F010E0F7018580968000E0D9
:100E70008114910479F049815A81B401C60151D09D
:100E800001E0892B09F400E0F701478150E0B60149
:100E9000C40154D089819A81892BE9F0B11004C032
:100EA000011102C01115B9F0F7018185928594876F
:100EB000838781818093E9008B8181118093F10088
:100EC00069817A8140E050E0C60132DB8091E80020
:100ED0008E778093E8002C813D810FB6F8943EBF59
:100EE0000FBE2DBF8E819F810FB6F8949EBF0FBE9F
:100EF0008DBF27960FB6F894DEBF0FBECDBFDF9132
:100F0000CF911F910F91FF90EF90DF90CF90BF9006
:100F10009F908F900895EE0FFF1F0590F491E02DA4
:100F20000994FB01DC0104C08D910190801921F42A
:100F300041505040C8F7881B990B0895FB01DC0114
:100F400002C001900D9241505040D8F70895DC0145
:100F500001C06D9341505040E0F70895F894FFCFE1
:100F6000CB04EA049C05EA049C05250557059C056D
:040F70007705830579
:0E0F740000010800009C0108000000000000C1
:00000001FF
