:10000000B1C00000CBC00000C9C00000C7C00000E4
:10001000C5C00000C3C00000C1C00000BFC00000D8
:10002000BDC00000BBC00000B9C00000EEC40000AD
:10003000B5C00000B3C00000B1C00000AFC00000F8
:10004000ADC00000ABC00000A9C00000A7C0000008
:10005000A5C00000A3C00000A1C0000033C2000082
:100060009DC000009BC0000099C0000097C0000028
:1000700095C000002003530068006F0072007400F8
:10008000790020004B006500790062006F0061007C
:10009000720064000000160352006F0063006B00E2
:1000A00038003400200044004900590000000403D7
:1000B000090409025F00030100C032080B000202BC
:1000C00002010009040000010202010005240010E1
:1000D0000104240206052406000107058203080026
:1000E000FF09040100020A000000070504021000D5
:1000F0000507058302100005090402000103010140
:1001000000092111010001224000070581030800B8
:100110000512011001020000080912BDFA40000199
:1001200002000105010906A101050719E029E715EB
:100130000025017501950881029501750881010569
:10014000081901290595057501910295017503911D
:1001500001150026FF000507190029FF95067508FF
:100160008100C00011241FBECFEFD2E0DEBFCDBFA3
:1001700011E0A0E0B1E0EAE6F4E102C005900D92E2
:10018000AC32B107D9F722E0ACE2B1E001C01D9278
:10019000A835B207E1F7BAD00C94330A31CF9C01ED
:1001A000DC01AE57BF4FED91FC9111978191A901F0
:1001B00040585F4FE417F50709F4F901ED93FC93FC
:1001C0004FB7F894F901EC57FF4F9081915090830D
:1001D0004FBF08959C01FC01E058FF4FA081B18101
:1001E0006C938081918101968E179F0709F4C90154
:1001F000918380839FB7F894F901EC57FF4F80817A
:100200008F5F80839FBF08959091C80095FFFCCFBA
:100210009CEC9093CE009091C80095FFFCCF80930A
:10022000CE008091C80085FFFCCF6093CE00809106
:10023000C80085FFFCCF1092CE008091C80085FFDA
:10024000FCCF1092CE008091C80085FFFCCF1092A9
:10025000CE008091C80085FFFCCF1092CE00809127
:10026000C80085FFFCCF1092CE000895AF92BF92D8
:10027000DF92EF92FF920F931F93CF93DF9384B798
:10028000877F84BF0FB6F894A8958091600088613D
:1002900080936000109260000FBE8CECA82EB12CF1
:1002A00087E690E0F501918380839AECE92EF12CAA
:1002B00026E0D22EF701D08208EC10E0F80110827F
:1002C000C9ECD0E088E18883539A5A9A8FD384E0AE
:1002D00085BD5F9A579A1882F8011082F701108243
:1002E0008FEC90E0F50191838083F701D08282E06A
:1002F000F801808388E98883DF91CF911F910F9166
:10030000FF90EF90DF90BF90AF900895AFDF2FB7D1
:10031000F89481EC91E09093420280934102909393
:100320004402809343022FBF2FB7F8948CE391E0EF
:100330009093BD018093BC019093BF018093BE0157
:100340002FBF789478948CECF82E9FB7F894809116
:10035000C0019FBF803849F080E191E07ED597FDD4
:1003600004C0682F8CE391E035DF9FB7F89480914B
:10037000C0019FBF8830C8F08CE391E010DF8C3C57
:10038000A1F48091C80085FFFCCFF092CE0007E079
:1003900010E08CE391E003DF9091C80095FFFCCF63
:1003A0008093CE0001501040A1F780E191E03ED54E
:1003B00080E091E07DD7D3D4C8CF0895089580E040
:1003C00091E05ED780E191E0E2D4E2EEF0E080815E
:1003D00084608083089580E191E06CD580E091E0B5
:1003E00013C680910E0190910F01009729F001979B
:1003F00090930F0180930E0108950895CF92DF929C
:10040000EF92FF920F931F93CF93DF9379016801CF
:100410009FB7F894809145029FBF8830D8F4A4E339
:10042000B1E0F70132968AE0E80EF11C8D918193DC
:10043000EE15FF05D9F788E090E0F60191838083FF
:1004400080E0DF91CF911F910F91FF90EF90DF90AF
:10045000CF900895C4E3D1E08E0181EC91E09FDE5E
:10046000F80181938F01F1E00C331F07B1F78991F7
:10047000803EF9F488818130E1F48981803EC9F4BD
:100480008091C80085FFFCCF8FEE8093CE008091D5
:10049000C80085FFFCCF81E08093CE008091C8002A
:1004A00085FFFCCF8FEE8093CE00FE011292188262
:1004B000198281E0CA33D807D1F6B1CFF901608142
:1004C0008DEDA2CE1F920F920FB60F9211242F9393
:1004D0003F934F935F936F937F938F939F93AF93CC
:1004E000BF93EF93FF936091CE008EB3843019F4E5
:1004F00081EC91E06FDEFF91EF91BF91AF919F9101
:100500008F917F916F915F914F913F912F910F90BC
:100510000FBE0F901F9018959C01DA01832F992729
:1005200083309105B9F060F48130910561F1029753
:10053000E1F48FE590E022EB30E02D933C930895B9
:100540008132910529F1829781F480E490E023E2E1
:1005500031E0F3CFC9019927213061F08230910554
:1005600079F0EEEAF0E0892B39F080E090E020E0CD
:1005700030E0E3CFE6E9F0E0849190E09F01DDCF49
:10058000E4E7F0E0F9CF82E190E021E131E0D5CF7E
:1005900089E090E021E031E0D0CFAF92BF92CF92DE
:1005A000DF92EF92FF920F931F93CF936C018B0119
:1005B0007A01B8D1C82F811124C0E114F10439F0B7
:1005C000F70180819181081B190BC80ED91EA12C3F
:1005D000B12C01151105A9F08091E80085FD21C01D
:1005E0008091E8008E778093E800B9D3E114F1049C
:1005F00099F0F701808191818A0D9B1D9183808301
:10060000C5E08C2FCF911F910F91FF90EF90DF905D
:10061000CF90BF90AF90089585D18115E9F2C82F92
:10062000F0CFF60181916F018093F1000150110923
:10063000FFEFAF1ABF0ACDCFFC019B01809155029D
:10064000909156028617970718F0672B61F0C90141
:1006500040E0009771F441110CC08091E80082FFE6
:1006600033C080E008958091E8008E778093E800A1
:10067000EECF2EB3211599F1253099F12091E800A4
:1006800023FD2BC02091E80022FDE7CF2091E80058
:1006900020FFDFCF2091F20030E0009719F02830E2
:1006A000310558F041E02830310509F040E0209153
:1006B000E8002E772093E800CCCF41914093F100E1
:1006C00001972F5F3F4FE9CF8EB3811541F0853001
:1006D00041F08091E80083FFC0CF81E0089582E07F
:1006E000089583E00895FC019B01672B49F58091F3
:1006F000E8008B778093E8008091E80080FF25C0B8
:1007000080E00895853011F483E008958091E80039
:1007100083FD21C08091E80082FF12C08091F20029
:10072000811531F08091F100819321503040B1F773
:100730008091E8008B778093E80021153105E1F284
:100740008EB38111DFCF82E008958EB38115D9F386
:10075000853091F6D9CF81E00895FC019B0180910D
:100760005502909156028617970718F0672B61F093
:10077000C90140E0009771F441110CC08091E8007C
:1007800082FF34C080E008958091E8008E778093E6
:10079000E800EECF2EB32115A1F12530A1F1209173
:1007A000E80023FD2CC02091E80022FDE7CF209136
:1007B000E80020FFDFCF2091F20030E0009719F031
:1007C0002830310558F041E02830310509F040E08B
:1007D0002091E8002E772093E800CCCF44914093FD
:1007E000F100319601972F5F3F4FE8CF8EB381150F
:1007F00041F0853041F08091E80083FFBFCF81E078
:10080000089582E0089583E00895982F953028F0A8
:100810008F708093E90081E008959093E900242F80
:10082000762F50E0981731F07091EC002091ED0098
:100830005091F00021FD02C09F5FE8CF3091EB00A6
:100840003E7F3093EB003091ED003D7F3093ED0023
:100850003091EB0031603093EB007093EC0020930B
:10086000ED005093F0002091EE0027FDE5CF80E0F1
:1008700008950F931F93CF93DF93162FEC0100E0A1
:10088000011302C081E00BC09881911103C00F5F7A
:100890002596F6CF892F8F70853030F080E0DF917C
:1008A000CF911F910F9108952C8156E0223008F4CA
:1008B00052E069817A8128E030E040E0261737076E
:1008C00080F04295407F452B6B816295660F660FE5
:1008D000607C97FB992790F9692B97DF8111D7CF1F
:1008E000DDCF4F5F220F331FE9CF80914F0287FF8B
:1008F00011C08091E80082FF06C08091E8008B77EC
:100900008093E80008958EB38111F3CF08958EB3DC
:100910008115E1F38091E80080FFF9CF8091E80034
:100920008E77EECF2091E4003091E50095E6A901A5
:100930002091EC00822F817020FF06C08091E8009A
:1009400080FF06C080E008952091E80022FD19C0D4
:100950008EB3811589F0853089F08091EB0085FD9B
:100960000FC02091E4003091E5004217530701F3D6
:100970009A95E9F684E0089582E0089583E0089569
:1009800081E008953CD03ED08091D8008F7780934D
:10099000D8008091D80080688093D8008091D800DA
:1009A0008F7D8093D80084E089BD86E089BD09B43D
:1009B00000FEFDCF1EBA10924E0242E060E080E0E1
:1009C00024DF8091E1008E7F8093E1008091E2003E
:1009D00081608093E2008091E20088608093E20071
:1009E0008091E0008E7F8093E0000895E3E6F0E0E0
:1009F00080818E7F808381E080935702C3CF1092E5
:100A0000E20008951092E10008951F920F920FB630
:100A10000F9211242F933F934F935F936F937F9384
:100A20008F939F93AF93BF93EF93FF938091E100D8
:100A300082FF0AC08091E20082FF06C08091E1003F
:100A40008B7F8093E100CDDC8091E10080FF16C0B8
:100A50008091E20080FF12C08091E2008E7F80933F
:100A6000E2008091E20080618093E2008091D800F2
:100A700080628093D80019BC1EBAA0DC8091E1008E
:100A800084FF26C08091E20084FF22C084E089BDFB
:100A900086E089BD09B400FEFDCF8091D8008F7D2E
:100AA0008093D8008091E1008F7E8093E100809157
:100AB000E2008F7E8093E2008091E200816080936B
:100AC000E20080914E028115C9F184E08EBB75DC95
:100AD0008091E10083FF21C08091E20083FF1DC06F
:100AE0008091E100877F8093E10082E08EBB1092CD
:100AF0004E028091E1008E7F8093E1008091E200C0
:100B00008E7F8093E2008091E20080618093E2001A
:100B100042E060E080E079DE21D1FF91EF91BF916A
:100B2000AF919F918F917F916F915F914F913F9185
:100B30002F910F900FBE0F901F9018958091E3009A
:100B400087FF02C083E0C2CF81E0C0CF0F931F9325
:100B5000CF93DF9300D0CDB7DEB78FE492E0FC01F6
:100B600001962091F100208322E087359207B9F7A2
:100B700032DC8091E80083FF10C090914F02809199
:100B80005002853009F4A0C0E8F4282F2D7F2130D1
:100B900009F462C0811509F43EC08091E80083FF2A
:100BA0000AC08091E800877F8093E8008091EB0085
:100BB00080628093EB000F900F90DF91CF911F9197
:100BC0000F910895883009F49FC0893009F4A9C0B5
:100BD000863019F79058923000F760915302709167
:100BE0005402AE014F5F5F4F8091510290915202CB
:100BF00093DC8C01892B89F28091E800877F8093B8
:100C0000E800B80189819A81A8DD8091E8008B779E
:100C10008093E800C2CF903891F0923809F0BDCFB0
:100C2000809153028F70853008F0B7CF8093E90030
:100C30008091EB0085FB882780F91092E900909164
:100C4000E800977F9093E8008093F1001092F10004
:100C50008091E8008E7721C0923009F09ECF90916C
:100C60005102911115C0909153029F702FEF290FDF
:100C7000243008F092CF9093E9002091EB0020FF00
:100C800007C0833071F48091EB0080628093EB00A9
:100C90001092E9008091E800877F8093E80025DECC
:100CA0007CCF8091EB0080618093EB0021E030E00D
:100CB00001C0220F9A95EAF72093EA001092EA0009
:100CC0008091EB008860E2CF911167CF10915102C3
:100CD0001F778091E3008078812B8093E3008091DF
:100CE000E800877F8093E80000DE8091E80080FFC5
:100CF000FCCF8091E30080688093E30083E01111D2
:100D000001C082E08EBB49CF903809F046CF809178
:100D1000E800877F8093E80080914E028093F10085
:100D200097CF91113ACF90915102923008F035CF80
:100D30008091E800877F8093E80090934E02D5DD94
:100D400080914E02811521F084E08EBB38DB25CFE7
:100D50008091E30087FDF8CF81E0F7CF0895CF932E
:100D60008EB3811591F08091E900C091EC008F70F5
:100D7000C795CC27C795C82B1092E9008091E80051
:100D800083FDE4DECF70C093E900CF910895CF9347
:100D9000DF93EC01FC0170968BE0DF011D928A95D8
:100DA000E9F782E08C83898783E08E8761E0CE015A
:100DB00001965FDD811561F061E0CE01069659DD97
:100DC000811531F061E0CE010B96DF91CF9151CDCD
:100DD00080E0DF91CF910895FC018EB3843021F53E
:100DE00084899589A689B789892B8A2B8B2BE1F079
:100DF00081818F708093E9008091F200811102C09F
:100E000080E008959091E8008091E8008E778093CB
:100E1000E80095FDF5CF86DD811107C09091E800CF
:100E20009E779093E800089582E00895FC018EB3C8
:100E3000843091F484899589A689B789892B8A2B76
:100E40008B2B51F081818F708093E9008091E800B5
:100E500080FF02C0CF01C0CF0895FC018EB3843063
:100E600019F08FEF9FEF089584899589A689B78936
:100E7000892B8A2B8B2BA9F386818F708093E900B5
:100E80008091E80082FFEDCF8091F200811569F03A
:100E90008091F10090E02091F200211105C0209195
:100EA000E8002B772093E80008958FEF9FEFF3CFB2
:100EB00008950895CF93DF93EC018091E80083FFBC
:100EC00013C028818091530290915402281719066B
:100ED00059F480915002823209F481C040F480328A
:100EE00009F44CC08132A9F0DF91CF91089583328B
:100EF000D9F780914F028132B9F78091E800877F5E
:100F00008093E800F2DC60915102CE01DF91CF9135
:100F1000D0CF80914F02813A39F78091E800877FE6
:100F20008093E8008091E80080FFFCCF8C899D8948
:100F3000AE89BF898093F100492F5A2F6B2F7727F5
:100F40004093F100AD01662777274093F1008B2F86
:100F50009927AA27BB278093F100888D8093F10001
:100F6000898D8093F1008A8D8093F1008091E80053
:100F70008E778093E800DF91CF91B7CC80914F02BC
:100F8000813209F0B1CF8091E800877F8093E8003B
:100F90008091E80082FF1FC03091F1002091F100A4
:100FA0009091F1008091F1003C8B2D8B9E8B8F8B6B
:100FB0008091F100888F8091F100898F8091F100FC
:100FC0008A8F8091E8008B778093E8008EDCCE01D9
:100FD000DF91CF916DCF8EB38111DACF85CF809124
:100FE0004F02813209F080CF8091E800877F8093A3
:100FF000E8007BDC8091510290915202998B888BA2
:10100000CE01DF91CF91F9C9AF92BF92CF92DF921B
:10101000EF92FF920F931F93CF93DF9300D000D0F6
:1010200000D00F92CDB7DEB77C012DB73EB73F831E
:101030002E838091E80083FF17C0F7012081809103
:101040005302909154022817190671F480915002AE
:10105000893009F489C000F5823009F4FBC083307F
:1010600009F4C5C0813081F12E813F810FB6F8941B
:101070003EBF0FBE2DBF27960FB6F894DEBF0FBE42
:10108000CDBFDF91CF911F910F91FF90EF90DF9037
:10109000CF90BF90AF9008958A3009F4C1C08B30D3
:1010A00019F780914F028132F9F68091E800877F2D
:1010B0008093E8001ADC9091510281E0911101C007
:1010C00080E0F7018187D0CF80914F02813A61F6AD
:1010D0002DB73EB73D832C831A821982809151022D
:1010E000109152028B838085482F50E0281B3109D4
:1010F0000FB6F8943EBF0FBE2DBF8DB79EB70196B9
:101100006C0160E070E0A8D14FEF410F8E010F5FDE
:101110001F4F9601BE016D5F7F4FC7016FD9F70169
:1011200086819781009721F0408550E0B6018BD1F0
:101130001092E9008091E800877F8093E8008B811E
:1011400081118093F10069817A81C60175DA8091FD
:10115000E8008B778093E8002C813D810FB6F894EE
:101160003EBF0FBE2DBF80CF80914F02813209F06C
:101170007BCF8DB79EB79D838C83009155021091D4
:101180005602A0905102B0905202EDB7FEB7E01B9C
:10119000F10B0FB6F894FEBF0FBEEDBF2DB73EB7F3
:1011A0002F5F3F4F69018091E800877F8093E800BF
:1011B000B801C90198DA8091E8008E778093E80041
:1011C00021E030E0A11002C020E030E0021B130B50
:1011D0002C0D3D1D4FEF4B0D6A2DC7016FD98C8132
:1011E0009D810FB6F8949EBF0FBE8DBF3DCF8091FD
:1011F0004F02813A09F038CF8091E800877F8093D1
:10120000E8008091E80080FFFCCFF70181858093A2
:10121000F1008091E8008E778093E80066DB24CFB0
:1012200080914F02813209F01FCF8091E800877FC3
:101230008093E8005ADB809151029091520236E08F
:10124000969587953A95E1F78C7F9370F70195878E
:1012500084870ACF80914F02813A09F005CF8091AF
:10126000E800877F8093E8008091E80080FFFCCF52
:10127000F701848595859695879596958795C7CF2F
:10128000CF93DF93FC01DC011A9686E0ED01199201
:101290008A95E9F781E0818784EF91E095878487DB
:1012A00083E0848361E0CF010196DF91CF91E1CAB1
:1012B0008F929F92BF92CF92DF92EF92FF920F9305
:1012C0001F93CF93DF9300D000D000D00F92CDB703
:1012D000DEB77C012DB73EB73F832E838EB38430BB
:1012E00009F08BC08091E4009091E500F701228520
:1012F00033852817390709F480C081818F70809366
:10130000E9008091E80085FF78C02DB73EB73D83A6
:101310002C838085482F50E0EDB7FEB7E81BF1091C
:101320000FB6F894FEBF0FBEEDBF2DB73EB72F5FCF
:101330003F4F69011B821A82198260E070E0C90187
:101340008BD08E010F5F1F4F960140E0BE016D5F95
:101350007F4FC70153D8B82EF70184859585892B17
:1013600029F011E086859785892B09F010E0F701B7
:101370008680978000E08114910479F049815A8138
:10138000B401C60153D001E0892B09F400E0F70154
:10139000408550E0B601C40156D089819A81892BDD
:1013A000F1F0B11004C0011102C01115C1F0F70134
:1013B000848595859787868781818F708093E900E2
:1013C0008B8181118093F10069817A8140E050E046
:1013D000C601E3D88091E8008E778093E800809181
:1013E000E4009091E500F701938782872C813D818D
:1013F0000FB6F8943EBF0FBE2DBF8E819F810FB6F2
:10140000F8949EBF0FBE8DBF27960FB6F894DEBF2F
:101410000FBECDBFDF91CF911F910F91FF90EF9045
:10142000DF90CF90BF909F908F900895FB01DC01DB
:1014300004C08D910190801921F441505040C8F7AB
:10144000881B990B0895FB01DC0102C001900D92ED
:1014500041505040D8F70895DC0101C06D934150D0
:0A1460005040E0F70895F894FFCF24
:10146A000281080000014602080000000000000096
:10147A00008310000001041000000182080000012E
:0C148A0000000000000000000000000056
:00000001FF
